{
  "_format": "hh-sol-artifact-1",
  "contractName": "MyContract",
  "sourceName": "contracts/MyContract.sol",
  "abi": [
    {
      "inputs": [],
      "stateMutability": "nonpayable",
      "type": "constructor"
    },
    {
      "anonymous": false,
      "inputs": [
        {
          "indexed": false,
          "internalType": "address",
          "name": "a",
          "type": "address"
        }
      ],
      "name": "AddedAddress",
      "type": "event"
    },
    {
      "inputs": [
        {
          "internalType": "address",
          "name": "a",
          "type": "address"
        }
      ],
      "name": "addAddress",
      "outputs": [],
      "stateMutability": "nonpayable",
      "type": "function"
    },
    {
      "inputs": [
        {
          "internalType": "uint256",
          "name": "",
          "type": "uint256"
        }
      ],
      "name": "myaddresses",
      "outputs": [
        {
          "internalType": "address",
          "name": "",
          "type": "address"
        }
      ],
      "stateMutability": "view",
      "type": "function"
    }
  ],
  "bytecode": "0x608060405234801561001057600080fd5b50604080516020810190915273abcabcabcabcabcabcabcabcabcabcabcabcabc08152610041906000906001610047565b506100c1565b82805482825590600052602060002090810192821561009c579160200282015b8281111561009c57825182546001600160a01b0319166001600160a01b03909116178255602090920191600190910190610067565b506100a89291506100ac565b5090565b5b808211156100a857600081556001016100ad565b6101f2806100d06000396000f3fe608060405234801561001057600080fd5b50600436106100365760003560e01c806338eada1c1461003b578063d04c94ea14610050575b600080fd5b61004e610049366004610169565b61008c565b005b61006361005e3660046101a4565b610132565b60405173ffffffffffffffffffffffffffffffffffffffff909116815260200160405180910390f35b600080546001810182559080527f290decd9548b62a8d60345a988386fc84ba6bc95484008f6362f93160ef3e5630180547fffffffffffffffffffffffff00000000000000000000000000000000000000001673ffffffffffffffffffffffffffffffffffffffff83169081179091556040519081527f9ea7fd0e935649aef198937d11521a733b0c739af33a553ed08e1e6b4417267e9060200160405180910390a150565b6000818154811061014257600080fd5b60009182526020909120015473ffffffffffffffffffffffffffffffffffffffff16905081565b60006020828403121561017a578081fd5b813573ffffffffffffffffffffffffffffffffffffffff8116811461019d578182fd5b9392505050565b6000602082840312156101b5578081fd5b503591905056fea264697066735822122021180a868bc1cb71d3041dded076041c4c2de9bb82343e571ecc08da418f431864736f6c63430008020033",
  "linkReferences": {},
  "deployedLinkReferences": {}
}